:100000000C946A000C948E070C9467070C94920071
:100010000C9492000C9492000C9492000C94920018
:100020000C9492000C9492000C9492000C94B507DE
:100030000C9492000C9492000C9492000C949200F8
:100040000C941D070C9492000C94EB060C94C506BE
:100050000C9492000C9492000C9492000C949200D8
:100060000C9492000C9492000000010008004000E3
:1000700000010004050D00000000230026002900F7
:1000800000000000240027002A00000000002500D6
:1000900028002B00040404040404040402020202E5
:1000A000020203030303030301020408102040803B
:1000B00001020408102001020408102000000008BA
:1000C000000201000003040700000000000000001F
:1000D0000309DE0A11241FBECFEFD8E0DEBFCDBF7B
:1000E00011E0A0E0B1E0E8EBFAE102C005900D926A
:1000F000A038B107D9F723E0A0E8B1E001C01D9214
:10010000AD33B207E1F710E0C9E6D0E004C02197B3
:10011000FE010E94490BC836D107C9F70E94EC09BD
:100120000C944F0D0C940000FC01538D448D252F31
:1001300030E0842F90E0821B930B541710F0CF9681
:10014000089501970895FC01918D828D981761F0B3
:10015000A28DAE0FBF2FB11D5D968C91928D9F5FCA
:100160009F73928F90E008958FEF9FEF0895FC01A9
:10017000918D828D981731F0828DE80FF11D858D5C
:1001800090E008958FEF9FEF0895FC01918D228DEF
:10019000892F90E0805C9F4F821B91098F73992774
:1001A0000895FC01A48DA80FB92FB11DA35ABF4F0C
:1001B0002C91848D90E001968F739927848FA68966
:1001C000B7892C93A089B1898C91837080648C93BA
:1001D000938D848D981306C00288F389E02D808169
:1001E0008F7D80830895EF92FF920F931F93CF939B
:1001F000DF93EC0181E0888F9B8D8C8D98131AC062
:10020000E889F989808185FF15C09FB7F894EE8948
:10021000FF896083E889F9898081837080648083A5
:100220009FBF81E090E0DF91CF911F910F91FF90F0
:10023000EF900895F62E0B8D10E00F5F1F4F0F7398
:100240001127E02E8C8D8E110CC00FB607FCFACF53
:10025000E889F989808185FFF5CFCE010E94D10020
:10026000F1CFEB8DEC0FFD2FF11DE35AFF4FF08224
:100270009FB7F8940B8FEA89FB8980818062CFCF8A
:10028000CF93DF93EC01888D8823B9F0AA89BB89CD
:10029000E889F9898C9185FD03C0808186FD0DC0B8
:1002A0000FB607FCF7CF8C9185FFF2CF808185FFD9
:1002B000EDCFCE010E94D100E9CFDF91CF9108951B
:1002C00080E991E00E94C50021E0892B09F420E03B
:1002D000822F089580E090E0892B29F00E94600130
:1002E00081110C9400000895AF92BF92CF92DF92DB
:1002F000EF92FF920F931F93CF93DF936C017B01DB
:100300008B01040F151FEB015E01AE18BF08C0176B
:10031000D10759F06991D601ED91FC910190F081DE
:10032000E02DC6010995892B79F7C501DF91CF91A1
:100330001F910F91FF90EF90DF90CF90BF90AF9003
:100340000895833081F028F4813099F08230A9F04B
:1003500008958730A9F08830C9F08430B1F48091D5
:1003600080008F7D03C0809180008F778093800014
:10037000089584B58F7784BD089584B58F7DFBCFB4
:100380008091B0008F778093B00008958091B00085
:100390008F7DF9CF1F93CF93DF93282F30E0F901A2
:1003A000E454FF4F8491F901E855FF4FD491F901CE
:1003B000EC56FF4FC491CC23A9F0162F81110E9457
:1003C000A101EC2FF0E0EE0FFF1FE657FF4FA591C4
:1003D000B4918FB7F894EC91111108C0D095DE2339
:1003E000DC938FBFDF91CF911F910895DE2BF8CF63
:1003F000CF93DF9390E0FC01E855FF4F24918C569A
:100400009F4FFC0184918823D1F090E0880F991FC1
:10041000FC01E058FF4FA591B491FC01E657FF4F56
:10042000C591D49161110EC09FB7F8948C91E22FC1
:10043000E0958E238C932881E223E8839FBFDF9190
:10044000CF9108958FB7F894EC91E22BEC938FBF86
:10045000F6CF08958CE30895CF93DF93FC012281BA
:1004600033812230310569F0EC01638D818D0E946A
:10047000CA0160E0888D0E94CA0182E090E09B83FF
:100480008A83DF91CF91089581E008958091820160
:10049000882361F09FB7F8942091820180918101B7
:1004A000213019F48DBB9FBF08958FBF0895FC01C3
:1004B0002085918580918201882361F08FB7F8941F
:1004C00030918201313049F43DB3309381013DB325
:1004D0003DBB8FBF2CBD9DBD089580938101FACF98
:1004E0009FB7F89480918001882319F08150809300
:1004F000800180918001811105C08CB58F7B8CBDFE
:10050000109282019FBF08958CB58F778CBD08959E
:100510008CB580688CBD08956EBD00000DB407FEDB
:10052000FDCF8EB508959CB59C7F282F2370922B0C
:100530009CBD9DB59E7F86958695892B8DBD089522
:10054000FC01738362830895FC01778366830895B9
:10055000FC01758364830895089580E00895FC018B
:1005600081850895FC0180850895FC0187810895A7
:10057000FC01868108954095FC0125854223642B6A
:1005800065870895FC0164870895FC0163870895D9
:10059000FC0162870895FC0164830895FC01658372
:1005A0000895CF92DF92EF92FF920F931F932FB790
:1005B000F894C0908A01D0908B01E0908C01F0906B
:1005C0008D012FBFAB0170E060E0EFB7F8940091B0
:1005D0008A0110918B0120918C0130918D01EFBF28
:1005E0000C191D092E093F0904171507260737079F
:1005F00070F4FC01228133812330310531F381E035
:100600001F910F91FF90EF90DF90CF90089580E0C1
:10061000F7CFFC012281338123303105D1F381E012
:1006200008958F929F92AF92BF92CF92DF92EF92F6
:10063000FF92CF93DF93EC018FB7F89480908A01FB
:1006400090908B01A0908C01B0908D018FBF6B01B9
:10065000F12CE12C2FB7F89480918A0190918B01B5
:10066000A0918C01B0918D012FBF88199909AA0919
:10067000BB098C159D05AE05BF05A0F4E881F98185
:100680000280F381E02DCE010995882319F3DF91D3
:10069000CF91FF90EF90DF90CF90BF90AF909F9061
:1006A0008F90089580E0F3CFCF93DF93EC01E88142
:1006B000F9810280F381E02DCE0109958823B9F3F9
:1006C000DF91CF910895862720E1829FB001112408
:1006D0008627482F50E0292F382FCA0164E09595CE
:1006E00087956A95E1F728273927CA0173E0880FB3
:1006F000991F7A95E1F78227932708957F928F9229
:100700009F92AF92BF92CF92DF92EF92FF920F93A0
:100710001F93CF93DF934D3308F014C1042F5B0177
:10072000EC017C0125E7E20EF11C17E0140FE881D3
:10073000F9810484F585E02D0995612F8FEF9FEFF6
:100740000E946303E12FF0E064E0F595E7956A9578
:10075000E1F7EA5EFE4F2081F7012083DE01AA580F
:10076000BF4F1F70E12FF0E0EA5EFE4F20812C9317
:100770001A85612F0E946303DE01A958BF4FE12F44
:10078000F0E074E0F595E7957A95E1F7EA5EFE4FC3
:1007900020812C9311961F70E12FF0E0EA5EFE4F4E
:1007A00020812C931B85612F0E946303DE01A758D3
:1007B000BF4FE12FF0E024E0F595E7952A95E1F7AA
:1007C000EA5EFE4F20812C9311961F70E12FF0E01E
:1007D000EA5EFE4F20812C931C85612F0E946303EB
:1007E000DE01A558BF4FE12FF0E034E0F595E79525
:1007F0003A95E1F7EA5EFE4F20812C9311961F7027
:10080000E12FF0E0EA5EFE4F20812C931D85612FE1
:100810000E946303DE01A358BF4FE12FF0E044E0E4
:10082000F595E7954A95E1F7EA5EFE4F20812C9316
:1008300011961F70E12FF0E0EA5EFE4F20812C93AD
:100840006501470110E0A00EB11EF2E08F0E911C71
:10085000CA14DB04E9F0F60171906F01672D0E9464
:100860006303E72DF0E054E0F595E7955A95E1F73D
:10087000EA5EFE4F2081F4012087F6013197E08186
:10088000EF70F0E0EA5EFE4F2081F4012187DDCFBA
:1008900098012B5F3F4F220F331F80959095D70112
:1008A000A20FB31FFC0154E0F695E7955A95E1F7C6
:1008B000EF70FF27EA5EFE4F30813C93F801EE0FA8
:1008C000FF1FBF016E0D7F1DAC014F7055274A5EA3
:1008D0005E4FFA013081FB0133870A5F1F4F000F23
:1008E000111F0E0D1F1DFC01EF2FFF27E295EF706A
:1008F000EA5EFE4F3081F8013083E92FFF27EF7069
:10090000FF27EA5EFE4F808113968C93FE01E5502F
:10091000FF4F245F20838A819B81039789F0E159EF
:10092000F109108231961082319610826B8D81E030
:100930006827898D0E94CA0183E090E09B838A83A7
:1009400081E001C080E0DF91CF911F910F91FF9076
:10095000EF90DF90CF90BF90AF909F908F907F905F
:100960000895EF92FF921F93CF93DF93FC012281B2
:1009700033812330310509F452C0EC018281938127
:10098000049761F0638D818D0E94CA0160E0888DBB
:100990000E94CA0184E090E09B838A838C8D882327
:1009A000E9F010E08FEF9FEF7E01F9E6EF0EF11C0A
:1009B000F7012081121740F4FE01E10FF11D65A13E
:1009C0000E9463031F5FF4CF883B904F71F08F85C7
:1009D00098890196988B8F871D8E1C8E8D8DDF9147
:1009E000CF911F91FF90EF9008958EA18E838FA1DC
:1009F0008F8388A5888789A589878D81811107C004
:100A00009E818C81981719F08E818F3F31F78989EB
:100A10009A8901969A8B898B81E08D8FDECF80E059
:100A2000DECFCF93DF93EC018091370290913802B3
:100A3000009759F02091390230913A022C173D0766
:100A400020F081E0DF91CF910895BE016F5F7F4F6D
:100A50000E94740C009789F09093380280933702BB
:100A6000D0933A02C093390220913B0230913C026C
:100A7000232B39F7FC011082E4CF80E0E3CF0E9402
:100A8000310DDF92EF92FF920F931F93CF93DF937D
:100A9000EC017B018A01E881F9810280F381E02D7C
:100AA0000995D82E8823D1F0E114F104B1F0011595
:100AB000110599F0FE01E759FF4F80818750F80139
:100AC0009081891708F48083F801408150E0BE01CD
:100AD000665D7F4FC7010E94360D1D8E8D2DDF9103
:100AE000CF911F910F91FF90EF90DF9008954F925B
:100AF0005F926F927F92AF92BF92CF92DF92EF920E
:100B0000FF921F93CF93DF9300D0CDB7DEB77C0168
:100B1000909384018093830161E0FC01808D0E94A9
:100B2000F80160E0F70187890E94F80161E0F701B0
:100B3000818D0E94F801C7010E942C02F701C5882F
:100B4000D688C114D10409F444C0F12CE12C83E00F
:100B5000CC0CDD1CEE1CFF1C8A95D1F79AE6A92E61
:100B600090E0B92E11E0412C24E2522E24EF622EA7
:100B7000712C42E050E0B501CE0101960E94E70AD7
:100B800029813A8150E040E0C301B2010E94270B65
:100B9000CA01B901A70196010E94270BDA01C90118
:100BA0000297A109B1098D3F9F4FA105B10510F131
:100BB0001F5F62E0A60EB11C1730D9F62230310556
:100BC0004105510530F02115310581E048075105F7
:100BD00098F081E00F900F90DF91CF911F91FF90DF
:100BE000EF90DF90CF90BF90AF907F906F905F902D
:100BF0004F900895163069F31092800088E080933A
:100C0000810080918100182B10938100309389001E
:100C10002093880080916F00826080936F00D9CF0D
:100C20000F931F93CF93DF93FC01868197810097E9
:100C300009F4A7C08130910509F49FC08230910565
:100C400009F49DC0039709F09CC08CE09CB5937F8C
:100C5000982B9CBD2281338140E054E264EF70E028
:100C600024303105C9F040E052E16AE770E02330FA
:100C7000310591F040E059E06DE370E0223031053C
:100C800059F040E452E46FE070E02130310521F486
:100C900040E854E86EE170E000E012E12AE730E05D
:100CA00090E0401751076207730740F43695279587
:100CB000179507959F5F9630A1F797E0448155817E
:100CC00021E0292730E74130510509F030E526952C
:100CD000282B232B20879095917091878CB54130DC
:100CE000510509F050C080628CBD828193810197CB
:100CF000C1E08430910520F48E5E9E4FFC01C081DE
:100D00008C2F0E949302DFB7F894809180018111AB
:100D100027C0EEE9F0E08491E2EBF0E09491E82F57
:100D2000F0E0EE0FFF1FE058FF4FA591B491EC915A
:100D3000E92321F461E08AE00E94CA0161E08AE0CF
:100D40000E94F8018CB580618CBD8CB580648CBD2F
:100D500061E08DE00E94F80161E08BE00E94F80103
:100D6000809180018F5F80938001DFBF8C2FDF91A6
:100D7000CF911F910F910C94930284E067CF88E08C
:100D800065CF80E063CF8F7DAFCF1F920F920FB6FC
:100D90000F9211242F933F934F935F936F937F9301
:100DA0008F939F93AF93BF93EF93FF9380E991E06D
:100DB0000E94D100FF91EF91BF91AF919F918F91D0
:100DC0007F916F915F914F913F912F910F900FBE47
:100DD0000F901F9018951F920F920FB60F9211242B
:100DE0002F938F939F93EF93FF93E091A001F09146
:100DF000A1018081E091A601F091A70182FD1BC0B5
:100E000090818091A9018F5F8F732091AA01821731
:100E100041F0E091A901F0E0E057FE4F958F8093FB
:100E2000A901FF91EF919F918F912F910F900FBE8C
:100E30000F901F9018958081F4CF1F920F920FB6DC
:100E40000F9211242F933F938F939F93AF93BF9350
:100E500080918A0190918B01A0918C01B0918D01BC
:100E60003091890123E0230F2D3758F50196A11DFC
:100E7000B11D2093890180938A0190938B01A093E7
:100E80008C01B0938D018091850190918601A09194
:100E90008701B09188010196A11DB11D8093850144
:100EA00090938601A0938701B0938801BF91AF9181
:100EB0009F918F913F912F910F900FBE0F901F9098
:100EC000189526E8230F0296A11DB11DD2CF1F92BF
:100ED0000F920FB60F9211242F933F934F935F936E
:100EE0006F937F938F939F93AF93BF93EF93FF93F2
:100EF000E0910201F09103010995FF91EF91BF91FB
:100F0000AF919F918F917F916F915F914F913F91A1
:100F10002F910F900FBE0F901F9018951F920F9258
:100F20000FB60F9211242F933F934F935F936F93BC
:100F30007F938F939F93AF93BF93EF93FF93E09132
:100F40000001F09101010995FF91EF91BF91AF91DF
:100F50009F918F917F916F915F914F913F912F91D1
:100F60000F900FBE0F901F9018951F920F920FB603
:100F70000F921124CF92DF92EF92FF920F931F9363
:100F80002F933F934F935F936F937F938F939F9391
:100F9000AF93BF93CF93DF93EF93FF93C091830100
:100FA000D09184018A819B81049709F0E1C02F8947
:100FB00030E0F901E454FF4F8491F901E855FF4F07
:100FC0000491F901EC56FF4F1491112379F081112E
:100FD0000E94A101E12FF0E0EE0FFF1FEA58FF4F42
:100FE000A591B491EC910E2381E009F480E0817029
:100FF0002A8D982F9227821719F08F8D8F5F8F8FF0
:101000008E8D8917F1F188A12DE1803508F42BE050
:1010100088A1820F88A39E8F88A1803A08F46DC0B2
:101020008AA19BA1969587959BA38AA38F8D8530D6
:1010300028F08AA19BA198609BA38AA388A1805ACB
:1010400088A31F8E89A1882309F486C08CA18F5F95
:101050008CA38C3008F451C08AA19BA1982F9F7358
:10106000892F86958695887028E0280F281769F0C3
:10107000E82FF0E0EA5EFE4F3081931739F08F5F82
:10108000F5CF88A18C5E88A3C7CF80E090E1899FCF
:10109000900111248AA19BA136E0969587953A95F7
:1010A000E1F7482F9595879595958795887098E0F5
:1010B000980F891749F0E82FF0E0EA5EFE4F508163
:1010C000451719F08F5FF5CF80E0822BDE01A7591D
:1010D000BF4F9C91AE0148595F4F911127C0FA0153
:1010E00080839081973018F090819434F8F019A2A1
:1010F0008F8598890196988B8F87FF91EF91DF916B
:10110000CF91BF91AF919F918F917F916F915F919F
:101110004F913F912F911F910F91FF90EF90DF9092
:10112000CF900F900FBE0F901F9018952C9191E0CB
:10113000920F9C932C0F3D2F311DF90185A39C919B
:10114000DA018C91981730F019A281E08C8FCE01D2
:101150000E942C021CA2D1CF8AA19BA188339B4064
:1011600061F681E089A31CA2C759DF4F1882C5CF61
:101170008A819B81039709F68E0104591F4FF8015C
:10118000808191E0980F9083811113C06E01FAE67F
:10119000CF0ED11CD601EC91AF56BF4F8C91E81702
:1011A00078F0CE010E942C028B899C8901969C8B41
:1011B0008B8BD8018C91883008F49FCF1C929DCFE7
:1011C000EC0FFD2FF11DE359FF4F608170E07E01B0
:1011D000BBE6EB0EF11CF701808191E0980F908344
:1011E00002C0759567958A95E2F76170888D0E94B7
:1011F000CA01D7018C918630E0F21C92F601808101
:101200008F5F8083D6CFCF93DF93CDB7DEB728979C
:101210000FB6F894DEBF0FBECDBF109293011092AF
:10122000920188EE93E0A0E0B0E080939401909367
:101230009501A0939601B09397018AE291E0909373
:1012400091018093900185EC90E090939D018093B3
:101250009C0184EC90E090939F0180939E0180EC30
:1012600090E09093A1018093A00181EC90E0909395
:10127000A3018093A20182EC90E09093A50180935A
:10128000A40186EC90E09093A7018093A6011092B0
:10129000A9011092AA011092AB011092AC01109218
:1012A000300210922F0210923202109231021092EC
:1012B0003402109233028CE391E090932E028093DB
:1012C0002D0280E580933502109236021092400282
:1012D00010923F028FEF80934102809347028093E8
:1012E00048021092490210924A0210924D02109246
:1012F0004C0210924F0210924E0210925102109224
:10130000500284E591E090933E0280933D0280ED8F
:1013100097E090935302809352028BE080935402A3
:101320008CE0809355028AE0809356021092580216
:1013300088E0EAE0F1E0DE01119601900D928A95D5
:10134000E1F788E0FE013196AAEAB2E001900D9241
:101350008A95E1F7109238021092370210923A0201
:101360001092390210923C0210923B0290E080E011
:101370000E941105209137023091380281111BC063
:101380002115310519F0C9010E94EB0B10923802AA
:101390001092370210923C0210923B0210923A02D5
:1013A0001092390228960FB6F894DEBF0FBECDBF5B
:1013B000DF91CF91089510923C0210923B026FE7AB
:1013C00071E0C90128960FB6F894DEBF0FBECDBFFD
:1013D000DF91CF910C94480DCF93DF93CDB7DEB75B
:1013E000EF970FB6F894DEBF0FBECDBF789484B5EB
:1013F000826084BD84B5816084BD85B5826085BD11
:1014000085B5816085BD80916E00816080936E009E
:101410001092810080918100826080938100809190
:101420008100816080938100809180008160809341
:1014300080008091B10084608093B1008091B00001
:1014400081608093B00080917A00846080937A00FC
:1014500080917A00826080937A0080917A00816026
:1014600080937A0080917A00806880937A0010924D
:10147000C1008DE392E00E94770561E084E00E9464
:10148000F80160E084E00E94CA018CE3782ECE016E
:1014900001967C0190E0A92E90E0B92E88248394D7
:1014A000912C7FAEAE01415C5F4FB7018DE392E0BE
:1014B0000E944105882309F46DC090E080E00E94FD
:1014C0001105209137023091380281113FC021155A
:1014D000310519F0C9010E94EB0B109238021092ED
:1014E000370210923C0210923B0210923A02109284
:1014F0003902670100913B0210913C022FADC601F9
:101500008E199F092817190659F154F1F601819196
:101510006F018DAF1EAE0F5F1F4FC8010E941105F6
:10152000882341F3209137023091380280913B02A9
:1015300090913C02BE01635C7F4F820F931F0E941B
:10154000480D10933C0200933B02D4CF10923C0212
:1015500010923B026FE771E0C9010E94480DC9CFAC
:10156000012BC1F06CE771E0809137029091380255
:101570000E943F0D892B71F480918E0190918F0113
:101580000097A1F490928F0180928E0161E084E037
:101590000E94CA01A114B10409F483CF0E94600122
:1015A000882309F47ECF0E9400007BCF019791F73A
:1015B00010928F0110928E0160E0E9CF8091370286
:1015C00090913802009711F00C94EB0B0895FB01F9
:1015D000DC0102C005900D9241505040D8F70895AB
:1015E0002F923F924F925F926F927F928F929F9233
:1015F000AF92BF92CF92DF92EF92FF920F931F9321
:10160000CF93DF93CDB7DEB7CA1BDB0B0FB6F894D1
:10161000DEBF0FBECDBF09942A88398848885F8411
:101620006E847D848C849B84AA84B984C884DF8082
:10163000EE80FD800C811B81AA81B981CE0FD11D66
:101640000FB6F894DEBF0FBECDBFED010895A1E245
:101650001A2EAA1BBB1BFD010DC0AA1FBB1FEE1F2C
:10166000FF1FA217B307E407F50720F0A21BB30B77
:10167000E40BF50B661F771F881F991F1A9469F7F3
:1016800060957095809590959B01AC01BD01CF014F
:101690000895EE0FFF1F0590F491E02D09940F932C
:1016A0001F93CF93DF938230910510F482E090E096
:1016B000E0913B03F0913C0330E020E0B0E0A0E09B
:1016C000309799F42115310509F44AC0281B390BCC
:1016D00024303105D8F58A819B816115710589F126
:1016E000FB0193838283FE0111C0408151810281FD
:1016F000138148175907E0F04817590799F41097D4
:1017000061F012960C93129713961C933296CF01A8
:10171000DF91CF911F910F91089500933B03109398
:101720003C03F4CF2115310551F04217530738F02F
:10173000A901DB019A01BD01DF01F801C1CFEF0171
:10174000F9CF90933C0380933B03CDCFFE01E20F92
:10175000F31F819391932250310939832883D7CF86
:101760002091390330913A03232B41F42091060153
:101770003091070130933A032093390320910401FB
:10178000309105012115310541F42DB73EB7409147
:10179000080150910901241B350BE0913903F091A8
:1017A0003A03E217F307A0F42E1B3F0B2817390763
:1017B00078F0AC014E5F5F4F2417350748F04E0FAD
:1017C0005F1F50933A0340933903819391939FCFC6
:1017D000F0E0E0E09CCFCF93DF930097E9F0FC01CD
:1017E000329713821282A0913B03B0913C03ED012A
:1017F00030E020E01097A1F420813181820F931F07
:101800002091390330913A032817390709F061C054
:10181000F0933A03E0933903DF91CF910895EA0101
:10182000CE17DF07E8F54A815B819E01411551051E
:10183000B1F7E901FB83EA8349915991C40FD51FA0
:10184000EC17FD0761F4808191810296840F951F4A
:10185000E90199838883828193819B838A83F0E065
:10186000E0E012968D919C9113970097B9F52D9118
:101870003C911197CD010296820F931F209139035D
:1018800030913A032817390739F6309751F51092FD
:101890003C0310923B03B0933A03A0933903BCCFAF
:1018A000D383C28340815181840F951FC817D90704
:1018B00061F44E5F5F4F88819981480F591F5183B2
:1018C00040838A819B81938382832115310509F0AE
:1018D000B0CFF0933C03E0933B039ECFFD01DC01CE
:1018E000C0CF13821282D7CFB0E0A0E0EAE7FCE0DD
:1018F0000C94F20A8C01009751F4CB010E944F0B1B
:101900008C01C801CDB7DEB7E0E10C940E0BFC01F1
:10191000E60FF71F9C0122503109E217F30708F484
:101920009DC0D901CD91DC911197C617D70798F0CA
:10193000C530D10530F3CE0104978617970708F319
:10194000C61BD70B2297C193D1936D937C93CF0184
:101950000E94EB0BD6CF5B01AC1ABD0A4C018C0E7A
:101960009D1EA0913B03B0913C03512C412CF12CC6
:10197000E12C109731F58091390390913A03881545
:10198000990509F05CC04616570608F058C08091CA
:10199000040190910501009741F48DB79EB74091E5
:1019A000080150910901841B950BE817F90708F00D
:1019B00055C0F0933A03E0933903F90171836083D2
:1019C000A0CF8D919C91119712966C9012971396BF
:1019D0007C901397A815B90559F56C0142E0C40E27
:1019E000D11CCA14DB0420F1AC014A195B09DA01ED
:1019F0001296159780F06282738251834083D901D9
:101A00006D937C93E114F10471F0D7011396FC936C
:101A1000EE93129776CF22968C0F9D1FF90191833A
:101A20008083F301EFCFF0933C03E0933B0369CF56
:101A30004816590608F42C017D01D3019ACFCB0139
:101A40000E944F0B7C01009749F0AE01B8010E9443
:101A5000360DC8010E94EB0B870153CF10E000E068
:101A600050CF81E090E0F8940C944F0DFB01DC0125
:101A700002C001900D9241505040D8F70895FB01EB
:101A8000DC018D91019080190110D9F3990B089513
:101A9000FB01DC0101900D920020E1F7089510E0B8
:101AA000C9E6D0E004C0FE010E94490B2196CA3667
:081AB000D107C9F7F894FFCF3C
:101AB8002902290200003D0380002A2A2A2A2A2A0C
:101AC800382C050004040D0E131516191A1C2325AD
:101AD80026292A2C323400000000F30074019400F7
:101AE8004001C500A300B700000000008C02880276
:101AF800840210067002A802A402A002570246023D
:101B0800000000007705B10441057E032A02540352
:101B18000903D1021103CB02C802C502C202BB02EB
:101B2800CE02B802B502B202AF02AD026C65640023
:00000001FF
