:100000000C9469000C94B8070C9491070C9491001F
:100010000C9491000C9491000C9491000C9491001C
:100020000C9491000C9491000C9491000C94DF07B7
:100030000C9491000C9491000C9491000C949100FC
:100040000C9447070C9491000C9415070C94EF0640
:100050000C9491000C9491000C9491000C949100DC
:100060000C9491000C9491000000010008004000E5
:1000700000010004050D00000000240027002A00F4
:1000800000000000250028002B00000000002300D5
:1000900026002900040404040404040402020202E9
:1000A000020203030303030301020408102040803B
:1000B00001020408102001020408102000000008BA
:1000C000000201000003040700000000000000001F
:1000D000130911241FBECFEFD8E0DEBFCDBF11E062
:1000E000A0E0B1E0EAEBF4E102C005900D92AA377E
:1000F000B107D9F723E0AAE7B1E001C01D92AB3206
:10010000B207E1F710E0C9E6D0E004C02197FE0194
:100110000E94470AC836D107C9F70E9492090C9479
:100120005B0A0C940000FC01538D448D252F30E0B8
:10013000842F90E0821B930B541710F0CF960895F4
:1001400001970895FC01918D828D981761F0A28D21
:10015000AE0FBF2FB11D5D968C91928D9F5F9F73E7
:10016000928F90E008958FEF9FEF0895FC01918D9D
:10017000828D981731F0828DE80FF11D858D90E00A
:1001800008958FEF9FEF0895FC01918D228D892FA7
:1001900090E0805C9F4F821B91098F73992708958F
:1001A000FC01A48DA80FB92FB11DA35ABF4F2C91EC
:1001B000848D90E001968F739927848FA689B789E3
:1001C0002C93A089B1898C91837080648C93938DDA
:1001D000848D981306C00288F389E02D80818F7D7D
:1001E00080830895EF92FF920F931F93CF93DF9335
:1001F000EC0181E0888F9B8D8C8D98131AC0E88963
:10020000F989808185FF15C09FB7F894EE89FF8931
:100210006083E889F98980818370806480839FBFCF
:1002200081E090E0DF91CF911F910F91FF90EF90CF
:100230000895F62E0B8D10E00F5F1F4F0F731127DF
:10024000E02E8C8D8E110CC00FB607FCFACFE8891A
:10025000F989808185FFF5CFCE010E94D000F1CFD2
:10026000EB8DEC0FFD2FF11DE35AFF4FF0829FB78E
:10027000F8940B8FEA89FB8980818062CFCFCF937E
:10028000DF93EC01888D8823B9F0AA89BB89E889BE
:10029000F9898C9185FD03C0808186FD0DC00FB664
:1002A00007FCF7CF8C9185FFF2CF808185FFEDCFE2
:1002B000CE010E94D000E9CFDF91CF91089588E868
:1002C00091E00E94C40021E0892B09F420E0822FF4
:1002D000089580E090E0892B29F00E945F01811150
:1002E0000C9400000895AF92BF92CF92DF92EF92EC
:1002F000FF920F931F93CF93DF936C017B018B01D0
:10030000040F151FEB015E01AE18BF08C017D1071F
:1003100059F06991D601ED91FC910190F081E02DA9
:10032000C6010995892B79F7C501DF91CF911F91FE
:100330000F91FF90EF90DF90CF90BF90AF90089516
:10034000833081F028F4813099F08230A9F008954B
:100350008730A9F08830C9F08430B1F480918000F2
:100360008F7D03C0809180008F77809380000895F7
:1003700084B58F7784BD089584B58F7DFBCF809140
:10038000B0008F778093B00008958091B0008F7D8A
:10039000F9CFCF93DF93282F30E0F901E454FF4FDA
:1003A0008491F901E855FF4FD491F901EC56FF4FC4
:1003B000C491CC23A1F081110E94A001EC2FF0E0A8
:1003C000EE0FFF1FE657FF4FA591B491EC91ED237F
:1003D00081E090E009F480E0DF91CF91089580E022
:1003E00090E0FACF1F93CF93DF93282F30E0F901ED
:1003F000E454FF4F8491F901E855FF4FD491F9017E
:10040000EC56FF4FC491CC23A9F0162F81110E9406
:10041000A001EC2FF0E0EE0FFF1FE058FF4FA59179
:10042000B4918FB7F894EC91111108C0D095DE23E8
:10043000DC938FBFDF91CF911F910895DE2BF8CF12
:10044000CF93DF9390E0FC01E855FF4F24918C5649
:100450009F4FFC0184918823C9F090E0880F991F79
:10046000FC01EA58FF4FA591B491FC01E058FF4F01
:10047000C591D49161110DC09FB7F8948C912095CE
:1004800082238C938881282328839FBFDF91CF917B
:100490000895623051F49FB7F8943C91822F809573
:1004A00083238C93E8812E2BEFCF8FB7F894EC91B8
:1004B0002E2B2C938FBFEACF3FB7F8948091840105
:1004C00090918501A0918601B091870126B5A89BE6
:1004D00005C02F3F19F00196A11DB11D3FBFBA2FD6
:1004E000A92F982F8827BC01CD01620F711D811D96
:1004F000911D42E0660F771F881F991F4A95D1F71B
:10050000089508958CE30895CF93DF93FC01228131
:1005100033812230310569F0EC01638D818D0E94B9
:10052000F20160E0888D0E94F20182E090E09B83FE
:100530008A83DF91CF91089581E0089580917C01B5
:10054000882361F09FB7F89420917C0180917B0112
:10055000213019F48DBB9FBF08958FBF0895FC0112
:100560002085918580917C01882361F08FB7F89474
:1005700030917C01313049F43DB330937B013DB380
:100580003DBB8FBF2CBD9DBD089580937B01FACFED
:100590009FB7F89480917A01882319F08150809355
:1005A0007A0180917A01811105C08CB58F7B8CBD59
:1005B00010927C019FBF08958CB58F778CBD0895F4
:1005C0008CB580688CBD08956EBD00000DB407FE2B
:1005D000FDCF8EB508959CB59C7F282F2370922B5C
:1005E0009CBD9DB59E7F86958695892B8DBD089572
:1005F000FC01738362830895FC0177836683089509
:10060000FC01758364830895089580E00895FC01DA
:1006100081850895FC0180850895FC0187810895F6
:10062000FC01868108954095FC0125854223642BB9
:1006300065870895FC0164870895FC016387089528
:10064000FC0162870895FC0164830895FC016583C1
:100650000895CF92DF92EF92FF920F931F932FB7DF
:10066000F894C0908001D0908101E0908201F090D8
:1006700083012FBFAB0170E060E0EFB7F894009109
:100680008001109181012091820130918301EFBF9F
:100690000C191D092E093F090417150726073707EE
:1006A00070F4FC01228133812330310531F381E084
:1006B0001F910F91FF90EF90DF90CF90089580E011
:1006C000F7CFFC012281338123303105D1F381E062
:1006D00008958F929F92AF92BF92CF92DF92EF9246
:1006E000FF92CF93DF93EC018FB7F8948090800155
:1006F00090908101A0908201B09083018FBF6B0127
:10070000F12CE12C2FB7F894809180019091810118
:10071000A0918201B09183012FBF88199909AA097C
:10072000BB098C159D05AE05BF05A0F4E881F981D4
:100730000280F381E02DCE010995882319F3DF9122
:10074000CF91FF90EF90DF90CF90BF90AF909F90B0
:100750008F90089580E0F3CFCF93DF93EC01E88191
:10076000F9810280F381E02DCE0109958823B9F348
:10077000DF91CF910895862720E1829FB001112457
:100780008627482F50E0292F382FCA0164E095951D
:1007900087956A95E1F728273927CA0173E0880F02
:1007A000991F7A95E1F78227932708957F928F9278
:1007B0009F92AF92BF92CF92DF92EF92FF920F93F0
:1007C0001F93CF93DF934D3308F014C1042F5B01C7
:1007D000EC017C0125E7E20EF11C17E0140FE88123
:1007E000F9810484F585E02D0995612F8FEF9FEF46
:1007F0000E94BB03E12FF0E064E0F595E7956A9570
:10080000E1F7E05FFE4F2081F7012083DE01AA5867
:10081000BF4F1F70E12FF0E0E05FFE4F20812C936F
:100820001A85612F0E94BB03DE01A958BF4FE12F3B
:10083000F0E074E0F595E7957A95E1F7E05FFE4F1B
:1008400020812C9311961F70E12FF0E0E05FFE4FA6
:1008500020812C931B85612F0E94BB03DE01A758CA
:10086000BF4FE12FF0E024E0F595E7952A95E1F7F9
:10087000E05FFE4F20812C9311961F70E12FF0E076
:10088000E05FFE4F20812C931C85612F0E94BB03EB
:10089000DE01A558BF4FE12FF0E034E0F595E79574
:1008A0003A95E1F7E05FFE4F20812C9311961F707F
:1008B000E12FF0E0E05FFE4F20812C931D85612F3A
:1008C0000E94BB03DE01A358BF4FE12FF0E044E0DC
:1008D000F595E7954A95E1F7E05FFE4F20812C936F
:1008E00011961F70E12FF0E0E05FFE4F20812C9306
:1008F0006501470110E0A00EB11EF2E08F0E911CC1
:10090000CA14DB04E9F0F60171906F01672D0E94B3
:10091000BB03E72DF0E054E0F595E7955A95E1F734
:10092000E05FFE4F2081F4012087F6013197E081DE
:10093000EF70F0E0E05FFE4F2081F4012187DDCF12
:1009400098012B5F3F4F220F331F80959095D70161
:10095000A20FB31FFC0154E0F695E7955A95E1F715
:10096000EF70FF27E05FFE4F30813C93F801EE0F00
:10097000FF1FBF016E0D7F1DAC014F705527405FFB
:100980005E4FFA013081FB0133870A5F1F4F000F72
:10099000111F0E0D1F1DFC01EF2FFF27E295EF70B9
:1009A000E05FFE4F3081F8013083E92FFF27EF70C1
:1009B000FF27E05FFE4F808113968C93FE01E55088
:1009C000FF4F245F20838A819B81039789F0E1593F
:1009D000F109108231961082319610826B8D81E080
:1009E0006827898D0E94F20183E090E09B838A83CF
:1009F00081E001C080E0DF91CF911F910F91FF90C6
:100A0000EF90DF90CF90BF90AF909F908F907F90AE
:100A10000895EF92FF921F93CF93DF93FC01228101
:100A200033812330310509F452C0EC018281938176
:100A3000049761F0638D818D0E94F20160E0888DE2
:100A40000E94F20184E090E09B838A838C8D88234E
:100A5000E9F010E08FEF9FEF7E01F9E6EF0EF11C59
:100A6000F7012081121740F4FE01E10FF11D65A18D
:100A70000E94BB031F5FF4CF883B904F71F08F85BE
:100A800098890196988B8F871D8E1C8E8D8DDF9196
:100A9000CF911F91FF90EF9008958EA18E838FA12B
:100AA0008F8388A5888789A589878D81811107C053
:100AB0009E818C81981719F08E818F3F31F789893B
:100AC0009A8901969A8B898B81E08D8FDECF80E0A9
:100AD000DECF0E944D0ADF92EF92FF920F931F9399
:100AE000CF93DF93EC017B018A01E881F9810280D9
:100AF000F381E02D0995D82E8823D1F0E114F1047B
:100B0000B1F00115110599F0FE01E759FF4F808101
:100B10008750F8019081891708F48083F80140819B
:100B200050E0BE01665D7F4FC7010E94520A1D8ED4
:100B30008D2DDF91CF911F910F91FF90EF90DF905E
:100B400008954F925F926F927F92AF92BF92CF9231
:100B5000DF92EF92FF921F93CF93DF9300D0CDB738
:100B6000DEB77C0190937E0180937D0161E0FC0102
:100B7000808D0E94200260E0F70187890E94200298
:100B800061E0F701818D0E942002C7010E9484026A
:100B9000F701C588D688C114D10409F444C0F12CEA
:100BA000E12C83E0CC0CDD1CEE1CFF1C8A95D1F7F8
:100BB0009AE6A92E90E0B92E11E0412C24E2522EA3
:100BC00024EF622E712C42E050E0B501CE01019677
:100BD0000E941C0A29813A8150E040E0C301B20121
:100BE0000E94250ACA01B901A70196010E94250A9F
:100BF000DA01C9010297A109B1098D3F9F4FA105F3
:100C0000B10510F11F5F62E0A60EB11C1730D9F6D6
:100C1000223031054105510530F02115310581E0C3
:100C20004807510598F081E00F900F90DF91CF9128
:100C30001F91FF90EF90DF90CF90BF90AF907F908B
:100C40006F905F904F900895163069F31092800076
:100C500088E08093810080918100182B109381009F
:100C6000309389002093880080916F008260809388
:100C70006F00D9CF0F931F93CF93DF93FC01868131
:100C80009781009709F4A7C08130910509F49FC0AE
:100C90008230910509F49DC0039709F09CC08CE057
:100CA0009CB5937F982B9CBD2281338140E054E218
:100CB00064EF70E024303105C9F040E052E16AE7AA
:100CC00070E02330310591F040E059E06DE370E0D1
:100CD0002230310559F040E452E46FE070E02130F9
:100CE000310521F440E854E86EE170E000E012E1E3
:100CF0002AE730E090E0401751076207730740F49D
:100D000036952795179507959F5F9630A1F797E041
:100D10004481558121E0292730E74130510509F010
:100D200030E52695282B232B20879095917091876D
:100D30008CB54130510509F050C080628CBD828174
:100D400093810197C1E08430910520F4845F9E4F28
:100D5000FC01C0818C2F0E94EB02DFB7F8948091D8
:100D60007A01811127C0EEE9F0E08491E2EBF0E036
:100D70009491E82FF0E0EE0FFF1FEA58FF4FA59186
:100D8000B491EC91E92321F461E08AE00E94F20140
:100D900061E08AE00E9420028CB580618CBD8CB538
:100DA00080648CBD61E08DE00E94200261E08BE0F8
:100DB0000E94200280917A018F5F80937A01DFBFC9
:100DC0008C2FDF91CF911F910F910C94EB0284E057
:100DD00067CF88E065CF80E063CF8F7DAFCF1F9274
:100DE0000F920FB60F9211242F933F934F935F935F
:100DF0006F937F938F939F93AF93BF93EF93FF93E3
:100E000088E891E00E94D000FF91EF91BF91AF91EF
:100E10009F918F917F916F915F914F913F912F9112
:100E20000F900FBE0F901F9018951F920F920FB644
:100E30000F9211242F938F939F93EF93FF93E09141
:100E40009801F09199018081E0919E01F0919F01BC
:100E500082FD1BC090818091A1018F5F8F732091D3
:100E6000A201821741F0E091A101F0E0E857FE4FA6
:100E7000958F8093A101FF91EF919F918F912F9179
:100E80000F900FBE0F901F9018958081F4CF1F9286
:100E90000F920FB60F9211242F933F938F939F932E
:100EA000AF93BF938091800190918101A0918201C5
:100EB000B091830130917F0123E0230F2D3758F546
:100EC0000196A11DB11D20937F0180938001909315
:100ED0008101A0938201B09383018091840190915C
:100EE0008501A0918601B09187010196A11DB11DD8
:100EF0008093840190938501A0938601B09387012C
:100F0000BF91AF919F918F913F912F910F900FBE05
:100F10000F901F90189526E8230F0296A11DB11D72
:100F2000D2CF1F920F920FB60F9211242F933F939F
:100F30004F935F936F937F938F939F93AF93BF93E1
:100F4000EF93FF93E0910201F09103010995FF9166
:100F5000EF91BF91AF919F918F917F916F915F9131
:100F60004F913F912F910F900FBE0F901F901895AA
:100F70001F920F920FB60F9211242F933F934F930E
:100F80005F936F937F938F939F93AF93BF93EF93F1
:100F9000FF93E0910001F09101010995FF91EF911C
:100FA000BF91AF919F918F917F916F915F914F9181
:100FB0003F912F910F900FBE0F901F9018951F9289
:100FC0000F920FB60F921124CF92DF92EF92FF9201
:100FD0000F931F932F933F934F935F936F937F9341
:100FE0008F939F93AF93BF93CF93DF93EF93FF9331
:100FF000C0917D01D0917E018A819B81049709F087
:10100000C7C08F890E94C90121E0892B09F420E023
:101010008A8D922F9827281719F08F8D8F5F8F8FC9
:101020008E8D8917F1F188A12DE1803508F42BE030
:1010300088A1820F88A39E8F88A1803A08F46DC092
:101040008AA19BA1969587959BA38AA38F8D8530B6
:1010500028F08AA19BA198609BA38AA388A1805AAB
:1010600088A31F8E89A1882309F486C08CA18F5F75
:101070008CA38C3008F451C08AA19BA1982F9F7338
:10108000892F86958695887028E0280F821769F049
:10109000E82FF0E0E05FFE4F3081931739F08F5F6B
:1010A000F5CF88A18C5E88A3C7CF80E090E1899FAF
:1010B000900111248AA19BA136E0969587953A95D7
:1010C000E1F7482F9595879595958795887098E0D5
:1010D000980F981749F0E82FF0E0E05FFE4F50813D
:1010E000451719F08F5FF5CF80E0822BDE01A759FD
:1010F000BF4F9C91AE0148595F4F911127C0FA0133
:1011000080839081973018F090819434F8F019A280
:101110008F8598890196988B8F87FF91EF91DF914A
:10112000CF91BF91AF919F918F917F916F915F917F
:101130004F913F912F911F910F91FF90EF90DF9072
:10114000CF900F900FBE0F901F9018952C9191E0AB
:10115000920F9C932C0F3D2F311DF90185A39C917B
:10116000DA018C91981730F019A281E08C8FCE01B2
:101170000E9484021CA2D1CF8AA19BA188339B40EC
:1011800061F681E089A31CA2C759DF4F1882C5CF41
:101190008A819B81039709F68E0104591F4FF8013C
:1011A000808191E0980F9083811113C06E01FAE65F
:1011B000CF0ED11CD601EC91AF56BF4F8C91E817E2
:1011C00078F0CE010E9484028B899C8901969C8BC9
:1011D0008B8BD8018C91883008F49FCF1C929DCFC7
:1011E000EC0FFD2FF11DE359FF4F608170E07E0190
:1011F000BBE6EB0EF11CF701808191E0980F908324
:1012000002C0759567958A95E2F76170888D0E9496
:10121000F201D7018C918630E0F21C92F6018081B8
:101220008F5F8083D6CFCF93DF93CDB7DEB728977C
:101230000FB6F894DEBF0FBECDBFE8E8F1E0138231
:10124000128288EE93E0A0E0B0E084839583A683C9
:10125000B78384E291E09183808385EC90E0958769
:10126000848784EC90E09787868780EC90E0918B70
:10127000808B81EC90E0938B828B82EC90E0958B5D
:10128000848B86EC90E0978B868B118E128E138E5A
:10129000148EE5E2F2E01382128215821482178224
:1012A000168286E391E09183808380E580871186B2
:1012B000EFE2F2E0138212828FEF848382878387CA
:1012C00014861586108A1786128A118A148A138A40
:1012D0008EE491E09183808380ED97E0968B858BFF
:1012E0008BE0878B8CE0808F8AE0818F138E88E083
:1012F000E4E0F1E0DE01119601900D928A95E1F7AC
:1013000088E0FE013196ACE9B2E001900D928A9539
:10131000E1F728960FB6F894DEBF0FBECDBFDF9180
:10132000CF910895789484B5826084BD84B581603E
:1013300084BD85B5826085BD85B5816085BD8091A0
:101340006E00816080936E00109281008091810018
:101350008260809381008091810081608093810010
:10136000809180008160809380008091B1008460D2
:101370008093B1008091B00081608093B000809133
:101380007A00846080937A0080917A0082608093F2
:101390007A0080917A00816080937A0080917A004F
:1013A000806880937A001092C1008FE292E00E94E0
:1013B000A10562E082E00E942002C0E0D0E082E06D
:1013C0000E94C901892B79F543E066E771E08FE25D
:1013D00092E00E94D6038FE292E00E9461030E9495
:1013E0005C024B015C0188ECC82ED12CE12CF12C65
:1013F0000E945C02681979098A099B09683E73405A
:1014000081059105A8F321E0C21AD108E108F1088D
:1014100088EE880E83E0981EA11CB11CC114D10473
:10142000E104F10429F7209751F20E945F0188231B
:1014300031F20E940000C3CFFB01DC0102C0059025
:101440000D9241505040D8F70895A1E21A2EAA1BE0
:10145000BB1BFD010DC0AA1FBB1FEE1FFF1FA21764
:10146000B307E407F50720F0A21BB30BE40BF50B61
:10147000661F771F881F991F1A9469F760957095EA
:10148000809590959B01AC01BD01CF010895EE0FB1
:10149000FF1F0590F491E02D099481E090E0F8940D
:1014A0000C945B0AFB01DC0102C001900D924150DB
:0A14B0005040D8F70895F894FFCFDC
:1014BA00810281022A2A2A2A2A2A382C05000404AF
:1014CA000D0E131516191A1C232526292A2C323417
:1014DA0000000000F200730193003F01C400A20063
:1014EA00B60000000000E402E002DC023A06C8028C
:1014FA000003FC02F802AF029E0200000000A105F0
:10150A0009056B05D6038202AC036103290369034B
:10151A00230320031D031A031303260310030D03D9
:0A152A000A03070305036C65640063
:00000001FF
