:100000000C9462000C948A000C948A000C948A0070
:100010000C948A000C948A000C948A000C948A0038
:100020000C948A000C948A000C948A000C948A0028
:100030000C948A000C948A000C948A000C948A0018
:100040000C94D3020C948A000C9443030C941D036B
:100050000C948A000C948A000C948A000C948A00F8
:100060000C948A000C948A000000000023002600F3
:10007000290000000008000201000003040700003E
:1000800000000000000000000000250028002B00F8
:1000900000000000240027002A00040404040404D3
:1000A0000404020202020202030303030303010227
:1000B00004081020408001020408102001020408F6
:1000C0001020A00411241FBECFEFD8E0DEBFCDBFAB
:1000D00011E0A0E0B1E0E8EFF9E002C005900D9278
:1000E000A837B107D9F722E0A8E7B1E001C01D9217
:1000F000A232B207E1F710E0C2E6D0E004C02197D7
:10010000FE010E94EF04C136D107C9F70E947503B2
:100110000C94FA040C940000CF93DF9390E0FC0160
:10012000E255FF4F2491FC01E656FF4F849188234E
:10013000C1F090E0880F991FFC01E057FF4FC59177
:10014000D491FC01EA57FF4FA591B4919FB7F89461
:100150008881E22FE0958E2388838C91E823EC93AD
:100160009FBFDF91CF910895833081F028F48130D3
:1001700099F08230A1F008958730A9F08830B9F065
:100180008430D1F4809180008F7D03C08091800005
:100190008F7780938000089584B58F7702C084B5EF
:1001A0008F7D84BD08958091B0008F7703C08091CA
:1001B000B0008F7D8093B00008953FB7F894809190
:1001C000810190918201A0918301B091840126B5B3
:1001D000A89B05C02F3F19F00196A11DB11D3FBF7F
:1001E000BA2FA92F982F8827820F911DA11DB11D0D
:1001F000BC01CD0142E0660F771F881F991F4A9509
:10020000D1F708958F929F92AF92BF92CF92DF92D3
:10021000EF92FF926B017C010E94DD004B015C01BB
:10022000C114D104E104F104F1F00E94DD00DC010D
:10023000CB0188199909AA09BB09883E9340A105F9
:10024000B10570F321E0C21AD108E108F10888EE87
:10025000880E83E0981EA11CB11CC114D104E104D6
:10026000F10419F7DDCFFF90EF90DF90CF90BF90B2
:10027000AF909F908F900895CF92DF92EF92FF9270
:100280000F931F93CF93DF936C017A018B01C0E032
:10029000D0E0CE15DF0581F0D8016D918D01D6013A
:1002A000ED91FC910190F081E02DC6010995892B1B
:1002B00011F02196EECF7E01C701DF91CF911F9102
:1002C0000F91FF90EF90DF90CF900895089580E018
:1002D00090E00895FC01538D448D252F30E0842F4C
:1002E00090E0821B930B541710F0CF96089501975E
:1002F0000895FC01918D828D981761F0828DDF0148
:10030000A80FB11D5D968C91928D9F5F9F73928F08
:1003100090E008958FEF9FEF0895FC01918D828DFD
:10032000981731F0828DE80FF11D858D90E00895CA
:100330008FEF9FEF0895FC01918D228D892F90E022
:10034000805C9F4F821B91098F739927089585E8E0
:1003500091E00E949B0121E0892B09F420E0822F8B
:100360000895FC01848DDF01A80FB11DA35ABF4F72
:100370002C91848D90E001968F739927848FA689A4
:10038000B7892C93A089B1898C91837080648C93F8
:10039000938D848D981306C00288F389E02D8081A7
:1003A0008F7D80830895EF92FF920F931F93CF93D9
:1003B000DF93EC0181E0888F9B8D8C8D981305C0B5
:1003C000E889F989808185FD26C0F62E0B8D10E025
:1003D0000F5F1F4F0F731127E02E8C8DE8120CC09A
:1003E0000FB607FCFACFE889F989808185FFF5CF40
:1003F000CE010E94B101F1CF8B8DFE01E80FF11DFE
:10040000E35AFF4FF0829FB7F8940B8FEA89FB897C
:10041000808180620AC09FB7F894EE89FF8960836B
:10042000E889F98980818370806480839FBF81E03F
:1004300090E0DF91CF911F910F91FF90EF90089581
:10044000CF93DF93EC01888D8823C9F0EA89FB897B
:10045000808185FD05C0A889B9898C9186FD0FC072
:100460000FB607FCF5CF808185FFF2CFA889B98947
:100470008C9185FFEDCFCE010E94B101E7CFDF91D6
:10048000CF91089580E090E0892B29F00E94A70188
:1004900081110C9400000895009769F0FC0101900F
:1004A0000020E9F73197AF01481B590BBC0185E8E3
:1004B00091E00C943C0180E090E008958F929F922F
:1004C000AF92BF92CF92DF92EF92FF920F931F9362
:1004D000CF93DF93CDB7DEB7A1970FB6F894DEBF09
:1004E0000FBECDBF6B017C0197FF2BC06DE285E88D
:1004F00091E00E94D3018C0122273327A9012C19F6
:100500003D094E095F0919A2CE0181967C019AE04E
:10051000892E912CA12CB12CCA01B901A5019401FD
:100520000E94CD04605DF70162937F0121153105C2
:100530004105510589F7CF010E944C02800F911FA0
:100540001DC09B01AC0119A28E010F5D1F4F8AE0F7
:10055000C82ED12CE12CF12CCA01B901A7019601BA
:100560000E94CD04605DF80162938F012115310571
:100570004105510589F7CF010E944C02A1960FB6A3
:10058000F894DEBF0FBECDBFDF91CF911F910F91C9
:10059000FF90EF90DF90CF90BF90AF909F908F90A3
:1005A00008950E94F5041F920F920FB60F92112426
:1005B0002F933F938F939F93AF93BF9380917D0130
:1005C00090917E01A0917F01B091800130917C01DA
:1005D00023E0230F2D3720F40196A11DB11D05C086
:1005E00026E8230F0296A11DB11D20937C01809364
:1005F0007D0190937E01A0937F01B0938001809153
:10060000810190918201A0918301B09184010196B2
:10061000A11DB11D8093810190938201A09383015C
:10062000B0938401BF91AF919F918F913F912F9192
:100630000F900FBE0F901F9018951F920F920FB63C
:100640000F9211242F933F934F935F936F937F9358
:100650008F939F93AF93BF93EF93FF9385E891E0C0
:100660000E94B101FF91EF91BF91AF919F918F9146
:100670007F916F915F914F913F912F910F900FBE9E
:100680000F901F9018951F920F920FB60F92112482
:100690002F938F939F93EF93FF93E0919501F091A8
:1006A00096018081E0919B01F0919C0182FD12C036
:1006B000908180919E018F5F8F7320919F0182179F
:1006C00051F0E0919E01F0E0EB57FE4F958F809343
:1006D0009E0101C08081FF91EF919F918F912F9199
:1006E0000F900FBE0F901F901895789484B582607C
:1006F00084BD84B5816084BD85B5826085BD85B5C6
:10070000816085BD80916E00816080936E00109243
:1007100081008091810082608093810080918100BE
:10072000816080938100809180008160809380004F
:100730008091B10084608093B1008091B0008160AD
:100740008093B00080917A00846080937A008091D9
:100750007A00826080937A0080917A008160809331
:100760007A0080917A00806880937A001092C100AC
:100770008EE00E948C0088E00E948C000AE710E066
:10078000F801849136EBE32E30E0F32EF701D4919B
:1007900042EAC42E40E0D42EF601C491CC2389F065
:1007A00081110E94B400EC2FF0E0EE0FFF1FEA571A
:1007B000FF4FA591B4919FB7F8948C918D2B8C939A
:1007C0009FBFE0919501F091960182E08083E091D6
:1007D0009101F09192011082E0919301F0919401C6
:1007E0008FEC808310929D01E0919901F0919A0124
:1007F00086E08083E0919701F0919801808180618B
:100800008083E0919701F0919801808188608083D6
:10081000E0919701F0919801808180688083E09158
:100820009701F091980180818F7D808390E4B92EAB
:10083000B0927C0080917A00806480937A008091ED
:100840007A0086FDFCCFC091780080917900D0E0DD
:10085000D82BF8018491F701A490F6019490992087
:10086000A1F081110E94B400E92DF0E0EE0FFF1F0E
:10087000E859FF4FA591B4918C91A82291E080E0B6
:1008800009F490E0892E982E02C0812C912C82E1EF
:1008900091E00E944C02BE010D2E000C880B990BBA
:1008A0000E945E028BE191E00E944C02B401092C8F
:1008B000000C880B990B0E945E02C431D105DCF458
:1008C00080917A0190917B0185389340A4F084E374
:1008D00091E00E944C0260917801709179016F5F04
:1008E0007F4F7093790160937801072E000C880B7D
:1008F000990B0E945E02892891F41092790110925E
:10090000780180E691E00E944C0285E791E00E9428
:100910004C0268EE73E080E090E00E940201D09308
:100920007B01C0937A0168EC70E080E090E00E9467
:10093000020185E791E00E944C020E94420278CFBA
:10094000E5E8F1E01382128288EE93E0A0E0B0E0E7
:1009500084839583A683B78384E091E09183808329
:1009600085EC90E09587848784EC90E09787868774
:1009700080EC90E0918B808B81EC90E0938B828B6C
:1009800082EC90E0958B848B86EC90E0978B868B45
:10099000118E128E138E148E0895A1E21A2EAA1BA8
:1009A000BB1BFD010DC0AA1FBB1FEE1FFF1FA2171F
:1009B000B307E407F50720F0A21BB30BE40BF50B1C
:1009C000661F771F881F991F1A9469F760957095A5
:1009D000809590959B01AC01BD01CF010895EE0F6C
:1009E000FF1F0590F491E02D099481E090E0F894C8
:0809F0000C94FA04F894FFCF07
:1009F80000000000D3013C016A0120029B0179013B
:100A08008D0170696E2031203D2000207C2020203F
:100A18002020202020427574746F6E5374617465B1
:100A2800203D20007C2020202020204E4557204FAC
:100A3800424A4543542044455445435445442121A2
:100A48002121212120436F756E746572203D20009D
:100A5800207C20202020202020436F756E74657232
:080A6800203D2030000D0A00C2
:107E0000112484B714BE81FFF0D085E080938100F7
:107E100082E08093C00088E18093C10086E0809377
:107E2000C20080E18093C4008EE0C9D0259A86E02C
:107E300020E33CEF91E0309385002093840096BBD3
:107E4000B09BFECF1D9AA8958150A9F7CC24DD24C4
:107E500088248394B5E0AB2EA1E19A2EF3E0BF2EE7
:107E6000A2D0813461F49FD0082FAFD0023811F036
:107E7000013811F484E001C083E08DD089C08234E0
:107E800011F484E103C0853419F485E0A6D080C0E4
:107E9000853579F488D0E82EFF2485D0082F10E0AE
:107EA000102F00270E291F29000F111F8ED06801E7
:107EB0006FC0863521F484E090D080E0DECF843638
:107EC00009F040C070D06FD0082F6DD080E0C81688
:107ED00080E7D80618F4F601B7BEE895C0E0D1E017
:107EE00062D089930C17E1F7F0E0CF16F0E7DF06D8
:107EF00018F0F601B7BEE89568D007B600FCFDCFD4
:107F0000A601A0E0B1E02C9130E011968C91119780
:107F100090E0982F8827822B932B1296FA010C0160
:107F200087BEE89511244E5F5F4FF1E0A038BF0790
:107F300051F7F601A7BEE89507B600FCFDCF97BE46
:107F4000E89526C08437B1F42ED02DD0F82E2BD052
:107F50003CD0F601EF2C8F010F5F1F4F84911BD097
:107F6000EA94F801C1F70894C11CD11CFA94CF0C13
:107F7000D11C0EC0853739F428D08EE10CD085E9AC
:107F80000AD08FE07ACF813511F488E018D01DD067
:107F900080E101D065CF982F8091C00085FFFCCF94
:107FA0009093C60008958091C00087FFFCCF809118
:107FB000C00084FD01C0A8958091C6000895E0E648
:107FC000F0E098E1908380830895EDDF803219F02E
:107FD00088E0F5DFFFCF84E1DECF1F93182FE3DFCA
:107FE0001150E9F7F2DF1F91089580E0E8DFEE27F6
:047FF000FF270994CA
:027FFE00040479
:0400000300007E007B
:00000001FF
