:100000000C9462000C948A000C948A000C948A0070
:100010000C948A000C948A000C948A000C948A0038
:100020000C948A000C948A000C948A000C948A0028
:100030000C948A000C948A000C948A000C948A0018
:100040000C94DC020C948A000C944C030C94260350
:100050000C948A000C948A000C948A000C948A00F8
:100060000C948A000C948A000000000024002700F1
:100070002A0000000000250028002B0000000000DE
:1000800023002600290004040404040404040202DA
:100090000202020203030303030301020408102007
:1000A0004080010204081020010204081020000012
:1000B0000008000201000003040700000000000027
:1000C00000009F0411241FBECFEFD8E0DEBFCDBFDC
:1000D00011E0A0E0B1E0E6E6FAE002C005900D9282
:1000E000A635B107D9F721E0A6E5B1E001C01D9220
:1000F000AC3FB207E1F710E0C2E6D0E004C02197C0
:10010000FE010E942B05C136D107C9F70E947E036C
:100110000C9431050C940000AF92BF92CF92DF9205
:10012000EF92FF920F931F93CF93DF936C017B01AC
:100130008B01040F151FEB015E01AE18BF08C0173D
:10014000D10759F06991D601ED91FC910190F081B0
:10015000E02DC6010995892B79F7C501DF91CF9173
:100160001F910F91FF90EF90DF90CF90BF90AF90D5
:100170000895FC01538D448D252F30E0842F90E0AD
:10018000821B930B541710F0CF9608950197089592
:10019000FC01918D828D981761F0A28DAE0FBF2F5B
:1001A000B11D5D968C91928D9F5F9F73928F90E0B1
:1001B00008958FEF9FEF0895FC01918D828D981720
:1001C00031F0828DE80FF11D858D90E008958FEF5D
:1001D0009FEF0895FC01918D228D892F90E0805C26
:1001E0009F4F821B91098F73992708958FE591E0A6
:1001F0000E94EA0021E0892B09F420E0822F089573
:1002000080E090E0892B29F00E94F60081110C9487
:1002100000000895FC01A48DA80FB92FB11DA35AA9
:10022000BF4F2C91848D90E001968F739927848F16
:10023000A689B7892C93A089B1898C918370806439
:100240008C93938D848D981306C00288F389E02DDA
:1002500080818F7D80830895EF92FF920F931F938B
:10026000CF93DF93EC0181E0888F9B8D8C8D981369
:100270001AC0E889F989808185FF15C09FB7F89475
:10028000EE89FF896083E889F989808183708064C1
:1002900080839FBF81E090E0DF91CF911F910F910C
:1002A000FF90EF900895F62E0B8D10E00F5F1F4F1B
:1002B0000F731127E02E8C8D8E110CC00FB607FC2A
:1002C000FACFE889F989808185FFF5CFCE010E94B8
:1002D0000A01F1CFEB8DEC0FFD2FF11DE35AFF4F1B
:1002E000F0829FB7F8940B8FEA89FB898081806246
:1002F000CFCFCF93DF93EC01888D8823B9F0AA8903
:10030000BB89E889F9898C9185FD03C0808186FDD0
:100310000DC00FB607FCF7CF8C9185FFF2CF80811F
:1003200085FFEDCFCE010E940A01E9CFDF91CF9189
:100330000895833081F028F4813099F08230A9F05B
:1003400008958730A9F08830C9F08430B1F48091E5
:1003500080008F7D03C0809180008F778093800024
:10036000089584B58F7784BD089584B58F7DFBCFC4
:100370008091B0008F778093B00008958091B00095
:100380008F7DF9CF1F93CF93DF93282F30E0F901B2
:10039000E255FF4F8491F901E656FF4FD491F901E0
:1003A000EA57FF4FC491CC23A9F0162F81110E9468
:1003B0009901EC2FF0E0EE0FFF1FEE58FF4FA591D3
:1003C000B4918FB7F894EC91111108C0D095DE2349
:1003D000DC938FBFDF91CF911F910895DE2BF8CF73
:1003E000CF93DF9390E0FC01E656FF4F24918A57AC
:1003F0009F4FFC0184918823C9F090E0880F991FDA
:10040000FC01E859FF4FA591B491FC01EE58FF4F54
:10041000C591D49161110DC09FB7F8948C9120952E
:1004200082238C938881282328839FBFDF91CF91DB
:100430000895623051F49FB7F8943C91822F8095D3
:1004400083238C93E8812E2BEFCF8FB7F894EC9118
:100450002E2B2C938FBFEACF8E50806480937C002C
:1004600080917A00806480937A0080917A0086FD82
:10047000FCCF80917800909179000895FC01019063
:100480000020E9F73197AF01481B590BBC018FE5FC
:1004900091E00C948C00CF93DF930E943E02EC011C
:1004A00082E191E00E943E028C0F9D1FDF91CF916F
:1004B00008958F929F92AF92BF92CF92DF92EF9268
:1004C000FF920F931F93CF93DF93CDB7DEB7A19722
:1004D0000FB6F894DEBF0FBECDBF6B017C01F7FEF7
:1004E00047C06DE28FE591E00E942C018C0122272C
:1004F0003327A9012C193D094E095F0919A2CE0124
:1005000081967C019AE0892E912CA12CB12CCA01F4
:10051000B901A50194010E94EB04605DF7016293AB
:100520007F01211531054105510589F790E080E0F3
:10053000309719F0CF010E943E02080F191F82E187
:1005400091E00E943E02800F911FA1960FB6F89491
:10055000DEBF0FBECDBFDF91CF911F910F91FF90F6
:10056000EF90DF90CF90BF90AF909F908F900895C5
:10057000AC019B0119A28E010F5D1F4F8AE0C82EAE
:10058000D12CE12CF12CCA01B901A70196010E94DE
:10059000EB04605DF80162938F012115310541057F
:1005A000510589F7309729F0CF010E943E028C0156
:1005B000C6CF10E000E0C3CF1F920F920FB60F928C
:1005C00011242F933F938F939F93AF93BF93809169
:1005D0005B0190915C01A0915D01B0915E01309151
:1005E0005A0123E0230F2D3758F50196A11DB11DA7
:1005F00020935A0180935B0190935C01A0935D016D
:10060000B0935E018091560190915701A0915801DD
:10061000B09159010196A11DB11D8093560190938F
:100620005701A0935801B0935901BF91AF919F9189
:100630008F913F912F910F900FBE0F901F901895A3
:1006400026E8230F0296A11DB11DD2CF1F920F9253
:100650000FB60F9211242F933F934F935F936F9395
:100660007F938F939F93AF93BF93EF93FF938FE508
:1006700091E00E940A01FF91EF91BF91AF919F918C
:100680008F917F916F915F914F913F912F910F903B
:100690000FBE0F901F9018951F920F920FB60F92DA
:1006A00011242F938F939F93EF93FF93E0916F010A
:1006B000F09170018081E0917501F091760182FDE9
:1006C0001BC09081809178018F5F8F732091790199
:1006D000821741F0E0917801F0E0E15AFE4F958FEA
:1006E00080937801FF91EF919F918F912F910F90BF
:1006F0000FBE0F901F9018958081F4CF789484B529
:10070000826084BD84B5816084BD85B5826085BD0D
:1007100085B5816085BD80916E00816080936E009B
:10072000109281008091810082608093810080918D
:10073000810081608093810080918000816080933E
:1007400080008091B10084608093B1008091B000FE
:1007500081608093B00080917A00846080937A00F9
:1007600080917A00826080937A0080917A00816023
:1007700080937A0080917A00806880937A0010924A
:10078000C10060E080E10E94F00160E08FE00E9423
:10079000F00162E082E00E94F00161E088E00E94E6
:1007A000F00161E089E00E94F001E0916F01F091B9
:1007B000700182E08083E0916B01F0916C01108206
:1007C000E0916D01F0916E018FEC808310927701C2
:1007D000E0917301F091740186E08083E0917101F2
:1007E000F0917201808180618083E0917101F091CC
:1007F0007201808188608083E0917101F0917201C3
:10080000808180688083E0917101F0917201808124
:100810008F7D808398E8292E90E0392E44244A94D5
:1008200023E0522E612C712C30E0832E30E0932E89
:1008300080E10E942C025C018FE00E942C028C015E
:10084000E0EBF0E08491ECE9F0E0C491F101D491A7
:10085000DD2309F453C081110E949901ED2FF0E0CE
:10086000EE0FFF1FE458FF4FA591B4918C91C82360
:1008700091E080E009F490E0C92FD82F9801ACE412
:10088000BFEF0E941C05A30192010E94CC046901E4
:100890007A01F4EBCF0ED11CE11CF11C860185E13D
:1008A00091E00E944B029501ACE4BFEF0E941C0551
:1008B000A30192010E94CC04CA01B9016C547F4F7C
:1008C0008F4F9F4F0E94590281E291E00E944B029C
:1008D000C701B6010E945902209799F08FE291E07A
:1008E0000E944B020739110584F460E088E00E9401
:1008F000C2010233110584F060E00FC0D0E0C0E017
:10090000BDCF81E491E00E944B0261E088E00E944B
:10091000C2010233110584F461E089E00E94C20142
:100920008114910409F484CF0E94F600882309F40D
:100930007FCF0E9400007CCFCD2B71F3DDCFEFE5A0
:10094000F1E01382128288EE93E0A0E0B0E08483AD
:100950009583A683B78384E091E09183808385ECBF
:1009600090E09587848784EC90E09787868780EC79
:1009700090E0918B808B81EC90E0938B828B82EC6A
:1009800090E0958B848B86EC90E0978B868B118E14
:10099000128E138E148E0895052E97FB1EF400946C
:1009A0000E94E30457FD07D00E94EB0407FC03D02C
:1009B0004EF40C94E30450954095309521953F4FAB
:1009C0004F4F5F4F089590958095709561957F4F3B
:1009D0008F4F9F4F0895A1E21A2EAA1BBB1BFD014A
:1009E0000DC0AA1FBB1FEE1FFF1FA217B307E4070E
:1009F000F50720F0A21BB30BE40BF50B661F771F66
:100A0000881F991F1A9469F7609570958095909545
:100A10009B01AC01BD01CF010895A29FB001B39F1E
:100A2000C001A39F700D811D1124911DB29F700DF7
:100A3000811D1124911D08950E940D05332312F488
:100A40008A1B9B0B0C9426050E940D05B7FF089589
:100A5000821B930B0895EE0FFF1F0590F491E02D7C
:060A60000994F894FFCF99
:100A6600000000002C018C00B9007901EA00C800E2
:100A7600DC000D0A0056616C6F72205652783A20DF
:100A860000202056616C6F72205652793A20002061
:100A960020426F74616F3A205B536F6C746F5D20F8
:100AA600002020426F74616F3A205B41706572745A
:060AB60061646F5D200089
:107E0000112484B714BE81FFF0D085E080938100F7
:107E100082E08093C00088E18093C10086E0809377
:107E2000C20080E18093C4008EE0C9D0259A86E02C
:107E300020E33CEF91E0309385002093840096BBD3
:107E4000B09BFECF1D9AA8958150A9F7CC24DD24C4
:107E500088248394B5E0AB2EA1E19A2EF3E0BF2EE7
:107E6000A2D0813461F49FD0082FAFD0023811F036
:107E7000013811F484E001C083E08DD089C08234E0
:107E800011F484E103C0853419F485E0A6D080C0E4
:107E9000853579F488D0E82EFF2485D0082F10E0AE
:107EA000102F00270E291F29000F111F8ED06801E7
:107EB0006FC0863521F484E090D080E0DECF843638
:107EC00009F040C070D06FD0082F6DD080E0C81688
:107ED00080E7D80618F4F601B7BEE895C0E0D1E017
:107EE00062D089930C17E1F7F0E0CF16F0E7DF06D8
:107EF00018F0F601B7BEE89568D007B600FCFDCFD4
:107F0000A601A0E0B1E02C9130E011968C91119780
:107F100090E0982F8827822B932B1296FA010C0160
:107F200087BEE89511244E5F5F4FF1E0A038BF0790
:107F300051F7F601A7BEE89507B600FCFDCF97BE46
:107F4000E89526C08437B1F42ED02DD0F82E2BD052
:107F50003CD0F601EF2C8F010F5F1F4F84911BD097
:107F6000EA94F801C1F70894C11CD11CFA94CF0C13
:107F7000D11C0EC0853739F428D08EE10CD085E9AC
:107F80000AD08FE07ACF813511F488E018D01DD067
:107F900080E101D065CF982F8091C00085FFFCCF94
:107FA0009093C60008958091C00087FFFCCF809118
:107FB000C00084FD01C0A8958091C6000895E0E648
:107FC000F0E098E1908380830895EDDF803219F02E
:107FD00088E0F5DFFFCF84E1DECF1F93182FE3DFCA
:107FE0001150E9F7F2DF1F91089580E0E8DFEE27F6
:047FF000FF270994CA
:027FFE00040479
:0400000300007E007B
:00000001FF
